{
	"undefined/joint_savings.sol": {
		"JointSavings": {
			"abi": [
				{
					"constant": false,
					"inputs": [
						{
							"name": "amount",
							"type": "uint256"
						},
						{
							"name": "recipient",
							"type": "address"
						}
					],
					"name": "withdraw",
					"outputs": [],
					"payable": false,
					"stateMutability": "nonpayable",
					"type": "function"
				},
				{
					"constant": false,
					"inputs": [
						{
							"name": "account1",
							"type": "address"
						},
						{
							"name": "account2",
							"type": "address"
						}
					],
					"name": "setAccounts",
					"outputs": [],
					"payable": false,
					"stateMutability": "nonpayable",
					"type": "function"
				},
				{
					"constant": true,
					"inputs": [],
					"name": "contractBalance",
					"outputs": [
						{
							"name": "",
							"type": "uint256"
						}
					],
					"payable": false,
					"stateMutability": "view",
					"type": "function"
				},
				{
					"constant": true,
					"inputs": [],
					"name": "lastWithdrawAmt",
					"outputs": [
						{
							"name": "",
							"type": "uint256"
						}
					],
					"payable": false,
					"stateMutability": "view",
					"type": "function"
				},
				{
					"constant": false,
					"inputs": [],
					"name": "deposit",
					"outputs": [],
					"payable": true,
					"stateMutability": "payable",
					"type": "function"
				},
				{
					"constant": true,
					"inputs": [],
					"name": "lastToWithdraw",
					"outputs": [
						{
							"name": "",
							"type": "address"
						}
					],
					"payable": false,
					"stateMutability": "view",
					"type": "function"
				}
			],
			"devdoc": {
				"methods": {}
			},
			"evm": {
				"assembly": "    /* \"undefined/joint_savings.sol\":861:3778  contract JointSavings {... */\n  mstore(0x40, 0x80)\n  callvalue\n    /* \"--CODEGEN--\":8:17   */\n  dup1\n    /* \"--CODEGEN--\":5:7   */\n  iszero\n  tag_1\n  jumpi\n    /* \"--CODEGEN--\":30:31   */\n  0x0\n    /* \"--CODEGEN--\":27:28   */\n  dup1\n    /* \"--CODEGEN--\":20:32   */\n  revert\n    /* \"--CODEGEN--\":5:7   */\ntag_1:\n    /* \"undefined/joint_savings.sol\":861:3778  contract JointSavings {... */\n  pop\n  dataSize(sub_0)\n  dup1\n  dataOffset(sub_0)\n  0x0\n  codecopy\n  0x0\n  return\nstop\n\nsub_0: assembly {\n        /* \"undefined/joint_savings.sol\":861:3778  contract JointSavings {... */\n      mstore(0x40, 0x80)\n      jumpi(tag_1, lt(calldatasize, 0x4))\n      calldataload(0x0)\n      0x100000000000000000000000000000000000000000000000000000000\n      swap1\n      div\n      0xffffffff\n      and\n      dup1\n      0xf714ce\n      eq\n      tag_2\n      jumpi\n      dup1\n      0x43e02605\n      eq\n      tag_3\n      jumpi\n      dup1\n      0x8b7afe2e\n      eq\n      tag_4\n      jumpi\n      dup1\n      0x99b2cd74\n      eq\n      tag_5\n      jumpi\n      dup1\n      0xd0e30db0\n      eq\n      tag_6\n      jumpi\n      dup1\n      0xe15e1c95\n      eq\n      tag_7\n      jumpi\n    tag_1:\n      0x0\n      dup1\n      revert\n        /* \"undefined/joint_savings.sol\":1535:2962  function withdraw(uint amount, address payable recipient) public {... */\n    tag_2:\n      callvalue\n        /* \"--CODEGEN--\":8:17   */\n      dup1\n        /* \"--CODEGEN--\":5:7   */\n      iszero\n      tag_8\n      jumpi\n        /* \"--CODEGEN--\":30:31   */\n      0x0\n        /* \"--CODEGEN--\":27:28   */\n      dup1\n        /* \"--CODEGEN--\":20:32   */\n      revert\n        /* \"--CODEGEN--\":5:7   */\n    tag_8:\n        /* \"undefined/joint_savings.sol\":1535:2962  function withdraw(uint amount, address payable recipient) public {... */\n      pop\n      tag_9\n      0x4\n      dup1\n      calldatasize\n      sub\n        /* \"--CODEGEN--\":13:15   */\n      0x40\n        /* \"--CODEGEN--\":8:11   */\n      dup2\n        /* \"--CODEGEN--\":5:16   */\n      lt\n        /* \"--CODEGEN--\":2:4   */\n      iszero\n      tag_10\n      jumpi\n        /* \"--CODEGEN--\":29:30   */\n      0x0\n        /* \"--CODEGEN--\":26:27   */\n      dup1\n        /* \"--CODEGEN--\":19:31   */\n      revert\n        /* \"--CODEGEN--\":2:4   */\n    tag_10:\n        /* \"undefined/joint_savings.sol\":1535:2962  function withdraw(uint amount, address payable recipient) public {... */\n      dup2\n      add\n      swap1\n      dup1\n      dup1\n      calldataload\n      swap1\n      0x20\n      add\n      swap1\n      swap3\n      swap2\n      swap1\n      dup1\n      calldataload\n      0xffffffffffffffffffffffffffffffffffffffff\n      and\n      swap1\n      0x20\n      add\n      swap1\n      swap3\n      swap2\n      swap1\n      pop\n      pop\n      pop\n      jump(tag_11)\n    tag_9:\n      stop\n        /* \"undefined/joint_savings.sol\":3393:3609  function setAccounts(address payable account1, address payable account2) public{... */\n    tag_3:\n      callvalue\n        /* \"--CODEGEN--\":8:17   */\n      dup1\n        /* \"--CODEGEN--\":5:7   */\n      iszero\n      tag_12\n      jumpi\n        /* \"--CODEGEN--\":30:31   */\n      0x0\n        /* \"--CODEGEN--\":27:28   */\n      dup1\n        /* \"--CODEGEN--\":20:32   */\n      revert\n        /* \"--CODEGEN--\":5:7   */\n    tag_12:\n        /* \"undefined/joint_savings.sol\":3393:3609  function setAccounts(address payable account1, address payable account2) public{... */\n      pop\n      tag_13\n      0x4\n      dup1\n      calldatasize\n      sub\n        /* \"--CODEGEN--\":13:15   */\n      0x40\n        /* \"--CODEGEN--\":8:11   */\n      dup2\n        /* \"--CODEGEN--\":5:16   */\n      lt\n        /* \"--CODEGEN--\":2:4   */\n      iszero\n      tag_14\n      jumpi\n        /* \"--CODEGEN--\":29:30   */\n      0x0\n        /* \"--CODEGEN--\":26:27   */\n      dup1\n        /* \"--CODEGEN--\":19:31   */\n      revert\n        /* \"--CODEGEN--\":2:4   */\n    tag_14:\n        /* \"undefined/joint_savings.sol\":3393:3609  function setAccounts(address payable account1, address payable account2) public{... */\n      dup2\n      add\n      swap1\n      dup1\n      dup1\n      calldataload\n      0xffffffffffffffffffffffffffffffffffffffff\n      and\n      swap1\n      0x20\n      add\n      swap1\n      swap3\n      swap2\n      swap1\n      dup1\n      calldataload\n      0xffffffffffffffffffffffffffffffffffffffff\n      and\n      swap1\n      0x20\n      add\n      swap1\n      swap3\n      swap2\n      swap1\n      pop\n      pop\n      pop\n      jump(tag_15)\n    tag_13:\n      stop\n        /* \"undefined/joint_savings.sol\":1331:1358  uint public contractBalance */\n    tag_4:\n      callvalue\n        /* \"--CODEGEN--\":8:17   */\n      dup1\n        /* \"--CODEGEN--\":5:7   */\n      iszero\n      tag_16\n      jumpi\n        /* \"--CODEGEN--\":30:31   */\n      0x0\n        /* \"--CODEGEN--\":27:28   */\n      dup1\n        /* \"--CODEGEN--\":20:32   */\n      revert\n        /* \"--CODEGEN--\":5:7   */\n    tag_16:\n        /* \"undefined/joint_savings.sol\":1331:1358  uint public contractBalance */\n      pop\n      tag_17\n      jump(tag_18)\n    tag_17:\n      mload(0x40)\n      dup1\n      dup3\n      dup2\n      mstore\n      0x20\n      add\n      swap2\n      pop\n      pop\n      mload(0x40)\n      dup1\n      swap2\n      sub\n      swap1\n      return\n        /* \"undefined/joint_savings.sol\":1298:1325  uint public lastWithdrawAmt */\n    tag_5:\n      callvalue\n        /* \"--CODEGEN--\":8:17   */\n      dup1\n        /* \"--CODEGEN--\":5:7   */\n      iszero\n      tag_19\n      jumpi\n        /* \"--CODEGEN--\":30:31   */\n      0x0\n        /* \"--CODEGEN--\":27:28   */\n      dup1\n        /* \"--CODEGEN--\":20:32   */\n      revert\n        /* \"--CODEGEN--\":5:7   */\n    tag_19:\n        /* \"undefined/joint_savings.sol\":1298:1325  uint public lastWithdrawAmt */\n      pop\n      tag_20\n      jump(tag_21)\n    tag_20:\n      mload(0x40)\n      dup1\n      dup3\n      dup2\n      mstore\n      0x20\n      add\n      swap2\n      pop\n      pop\n      mload(0x40)\n      dup1\n      swap2\n      sub\n      swap1\n      return\n        /* \"undefined/joint_savings.sol\":3027:3244  function deposit() public payable {... */\n    tag_6:\n      tag_22\n      jump(tag_23)\n    tag_22:\n      stop\n        /* \"undefined/joint_savings.sol\":1262:1291  address public lastToWithdraw */\n    tag_7:\n      callvalue\n        /* \"--CODEGEN--\":8:17   */\n      dup1\n        /* \"--CODEGEN--\":5:7   */\n      iszero\n      tag_24\n      jumpi\n        /* \"--CODEGEN--\":30:31   */\n      0x0\n        /* \"--CODEGEN--\":27:28   */\n      dup1\n        /* \"--CODEGEN--\":20:32   */\n      revert\n        /* \"--CODEGEN--\":5:7   */\n    tag_24:\n        /* \"undefined/joint_savings.sol\":1262:1291  address public lastToWithdraw */\n      pop\n      tag_25\n      jump(tag_26)\n    tag_25:\n      mload(0x40)\n      dup1\n      dup3\n      0xffffffffffffffffffffffffffffffffffffffff\n      and\n      0xffffffffffffffffffffffffffffffffffffffff\n      and\n      dup2\n      mstore\n      0x20\n      add\n      swap2\n      pop\n      pop\n      mload(0x40)\n      dup1\n      swap2\n      sub\n      swap1\n      return\n        /* \"undefined/joint_savings.sol\":1535:2962  function withdraw(uint amount, address payable recipient) public {... */\n    tag_11:\n        /* \"undefined/joint_savings.sol\":1862:1869  acctOne */\n      0x0\n      dup1\n      swap1\n      sload\n      swap1\n      0x100\n      exp\n      swap1\n      div\n      0xffffffffffffffffffffffffffffffffffffffff\n      and\n        /* \"undefined/joint_savings.sol\":1849:1869  recipient == acctOne */\n      0xffffffffffffffffffffffffffffffffffffffff\n      and\n        /* \"undefined/joint_savings.sol\":1849:1858  recipient */\n      dup2\n        /* \"undefined/joint_savings.sol\":1849:1869  recipient == acctOne */\n      0xffffffffffffffffffffffffffffffffffffffff\n      and\n      eq\n        /* \"undefined/joint_savings.sol\":1849:1893  recipient == acctOne || recipient == acctTwo */\n      dup1\n      tag_28\n      jumpi\n      pop\n        /* \"undefined/joint_savings.sol\":1886:1893  acctTwo */\n      0x1\n      0x0\n      swap1\n      sload\n      swap1\n      0x100\n      exp\n      swap1\n      div\n      0xffffffffffffffffffffffffffffffffffffffff\n      and\n        /* \"undefined/joint_savings.sol\":1873:1893  recipient == acctTwo */\n      0xffffffffffffffffffffffffffffffffffffffff\n      and\n        /* \"undefined/joint_savings.sol\":1873:1882  recipient */\n      dup2\n        /* \"undefined/joint_savings.sol\":1873:1893  recipient == acctTwo */\n      0xffffffffffffffffffffffffffffffffffffffff\n      and\n      eq\n        /* \"undefined/joint_savings.sol\":1849:1893  recipient == acctOne || recipient == acctTwo */\n    tag_28:\n        /* \"undefined/joint_savings.sol\":1840:1936  require((recipient == acctOne || recipient == acctTwo), \"WARNING: You DO NOT own this account!\") */\n      iszero\n      iszero\n      tag_29\n      jumpi\n      mload(0x40)\n      0x8c379a000000000000000000000000000000000000000000000000000000000\n      dup2\n      mstore\n      0x4\n      add\n      dup1\n      dup1\n      0x20\n      add\n      dup3\n      dup2\n      sub\n      dup3\n      mstore\n      0x25\n      dup2\n      mstore\n      0x20\n      add\n      dup1\n      0x5741524e494e473a20596f7520444f204e4f54206f776e207468697320616363\n      dup2\n      mstore\n      0x20\n      add\n      0x6f756e7421000000000000000000000000000000000000000000000000000000\n      dup2\n      mstore\n      pop\n      0x40\n      add\n      swap2\n      pop\n      pop\n      mload(0x40)\n      dup1\n      swap2\n      sub\n      swap1\n      revert\n    tag_29:\n        /* \"undefined/joint_savings.sol\":2182:2197  contractBalance */\n      sload(0x4)\n        /* \"undefined/joint_savings.sol\":2172:2178  amount */\n      dup3\n        /* \"undefined/joint_savings.sol\":2172:2197  amount >= contractBalance */\n      lt\n      iszero\n        /* \"undefined/joint_savings.sol\":2164:2221  require(amount >= contractBalance, \"Insufficient funds!\") */\n      iszero\n      iszero\n      tag_30\n      jumpi\n      mload(0x40)\n      0x8c379a000000000000000000000000000000000000000000000000000000000\n      dup2\n      mstore\n      0x4\n      add\n      dup1\n      dup1\n      0x20\n      add\n      dup3\n      dup2\n      sub\n      dup3\n      mstore\n      0x13\n      dup2\n      mstore\n      0x20\n      add\n      dup1\n      0x496e73756666696369656e742066756e64732100000000000000000000000000\n      dup2\n      mstore\n      pop\n      0x20\n      add\n      swap2\n      pop\n      pop\n      mload(0x40)\n      dup1\n      swap2\n      sub\n      swap1\n      revert\n    tag_30:\n        /* \"undefined/joint_savings.sol\":2462:2471  recipient */\n      dup1\n        /* \"undefined/joint_savings.sol\":2444:2471  lastToWithdraw != recipient */\n      0xffffffffffffffffffffffffffffffffffffffff\n      and\n        /* \"undefined/joint_savings.sol\":2444:2458  lastToWithdraw */\n      0x2\n      0x0\n      swap1\n      sload\n      swap1\n      0x100\n      exp\n      swap1\n      div\n      0xffffffffffffffffffffffffffffffffffffffff\n      and\n        /* \"undefined/joint_savings.sol\":2444:2471  lastToWithdraw != recipient */\n      0xffffffffffffffffffffffffffffffffffffffff\n      and\n      eq\n      iszero\n        /* \"undefined/joint_savings.sol\":2440:2524  if (lastToWithdraw != recipient) {... */\n      iszero\n      tag_31\n      jumpi\n        /* \"undefined/joint_savings.sol\":2504:2513  recipient */\n      dup1\n        /* \"undefined/joint_savings.sol\":2487:2501  lastToWithdraw */\n      0x2\n      0x0\n        /* \"undefined/joint_savings.sol\":2487:2513  lastToWithdraw = recipient */\n      0x100\n      exp\n      dup2\n      sload\n      dup2\n      0xffffffffffffffffffffffffffffffffffffffff\n      mul\n      not\n      and\n      swap1\n      dup4\n      0xffffffffffffffffffffffffffffffffffffffff\n      and\n      mul\n      or\n      swap1\n      sstore\n      pop\n        /* \"undefined/joint_savings.sol\":2440:2524  if (lastToWithdraw != recipient) {... */\n    tag_31:\n        /* \"undefined/joint_savings.sol\":2646:2655  recipient */\n      dup1\n        /* \"undefined/joint_savings.sol\":2646:2664  recipient.transfer */\n      0xffffffffffffffffffffffffffffffffffffffff\n      and\n        /* \"undefined/joint_savings.sol\":2646:2672  recipient.transfer(amount) */\n      0x8fc\n        /* \"undefined/joint_savings.sol\":2665:2671  amount */\n      dup4\n        /* \"undefined/joint_savings.sol\":2646:2672  recipient.transfer(amount) */\n      swap1\n      dup2\n      iszero\n      mul\n      swap1\n      mload(0x40)\n      0x0\n      mload(0x40)\n      dup1\n      dup4\n      sub\n      dup2\n      dup6\n      dup9\n      dup9\n      call\n      swap4\n      pop\n      pop\n      pop\n      pop\n      iszero\n        /* \"--CODEGEN--\":8:17   */\n      dup1\n        /* \"--CODEGEN--\":5:7   */\n      iszero\n      tag_32\n      jumpi\n        /* \"--CODEGEN--\":45:61   */\n      returndatasize\n        /* \"--CODEGEN--\":42:43   */\n      0x0\n        /* \"--CODEGEN--\":39:40   */\n      dup1\n        /* \"--CODEGEN--\":24:62   */\n      returndatacopy\n        /* \"--CODEGEN--\":77:93   */\n      returndatasize\n        /* \"--CODEGEN--\":74:75   */\n      0x0\n        /* \"--CODEGEN--\":67:94   */\n      revert\n        /* \"--CODEGEN--\":5:7   */\n    tag_32:\n        /* \"undefined/joint_savings.sol\":2646:2672  recipient.transfer(amount) */\n      pop\n        /* \"undefined/joint_savings.sol\":1535:2962  function withdraw(uint amount, address payable recipient) public {... */\n      pop\n      pop\n      jump\t// out\n        /* \"undefined/joint_savings.sol\":3393:3609  function setAccounts(address payable account1, address payable account2) public{... */\n    tag_15:\n      pop\n      pop\n      jump\t// out\n        /* \"undefined/joint_savings.sol\":1331:1358  uint public contractBalance */\n    tag_18:\n      sload(0x4)\n      dup2\n      jump\t// out\n        /* \"undefined/joint_savings.sol\":1298:1325  uint public lastWithdrawAmt */\n    tag_21:\n      sload(0x3)\n      dup2\n      jump\t// out\n        /* \"undefined/joint_savings.sol\":3027:3244  function deposit() public payable {... */\n    tag_23:\n      jump\t// out\n        /* \"undefined/joint_savings.sol\":1262:1291  address public lastToWithdraw */\n    tag_26:\n      0x2\n      0x0\n      swap1\n      sload\n      swap1\n      0x100\n      exp\n      swap1\n      div\n      0xffffffffffffffffffffffffffffffffffffffff\n      and\n      dup2\n      jump\t// out\n\n    auxdata: 0xa165627a7a72305820f3aff38095ec0151793f7d4510650be8f21f7fc79bfa15e3ef30ff8979a19df80029\n}\n",
				"bytecode": {
					"linkReferences": {},
					"object": "608060405234801561001057600080fd5b50610503806100206000396000f3fe608060405260043610610077576000357c0100000000000000000000000000000000000000000000000000000000900463ffffffff168062f714ce1461007c57806343e02605146100d75780638b7afe2e1461014857806399b2cd7414610173578063d0e30db01461019e578063e15e1c95146101a8575b600080fd5b34801561008857600080fd5b506100d56004803603604081101561009f57600080fd5b8101908080359060200190929190803573ffffffffffffffffffffffffffffffffffffffff1690602001909291905050506101ff565b005b3480156100e357600080fd5b50610146600480360360408110156100fa57600080fd5b81019080803573ffffffffffffffffffffffffffffffffffffffff169060200190929190803573ffffffffffffffffffffffffffffffffffffffff16906020019092919050505061049f565b005b34801561015457600080fd5b5061015d6104a3565b6040518082815260200191505060405180910390f35b34801561017f57600080fd5b506101886104a9565b6040518082815260200191505060405180910390f35b6101a66104af565b005b3480156101b457600080fd5b506101bd6104b1565b604051808273ffffffffffffffffffffffffffffffffffffffff1673ffffffffffffffffffffffffffffffffffffffff16815260200191505060405180910390f35b6000809054906101000a900473ffffffffffffffffffffffffffffffffffffffff1673ffffffffffffffffffffffffffffffffffffffff168173ffffffffffffffffffffffffffffffffffffffff1614806102a75750600160009054906101000a900473ffffffffffffffffffffffffffffffffffffffff1673ffffffffffffffffffffffffffffffffffffffff168173ffffffffffffffffffffffffffffffffffffffff16145b1515610341576040517f08c379a00000000000000000000000000000000000000000000000000000000081526004018080602001828103825260258152602001807f5741524e494e473a20596f7520444f204e4f54206f776e20746869732061636381526020017f6f756e742100000000000000000000000000000000000000000000000000000081525060400191505060405180910390fd5b60045482101515156103bb576040517f08c379a00000000000000000000000000000000000000000000000000000000081526004018080602001828103825260138152602001807f496e73756666696369656e742066756e6473210000000000000000000000000081525060200191505060405180910390fd5b8073ffffffffffffffffffffffffffffffffffffffff16600260009054906101000a900473ffffffffffffffffffffffffffffffffffffffff1673ffffffffffffffffffffffffffffffffffffffff161415156104545780600260006101000a81548173ffffffffffffffffffffffffffffffffffffffff021916908373ffffffffffffffffffffffffffffffffffffffff1602179055505b8073ffffffffffffffffffffffffffffffffffffffff166108fc839081150290604051600060405180830381858888f1935050505015801561049a573d6000803e3d6000fd5b505050565b5050565b60045481565b60035481565b565b600260009054906101000a900473ffffffffffffffffffffffffffffffffffffffff168156fea165627a7a72305820f3aff38095ec0151793f7d4510650be8f21f7fc79bfa15e3ef30ff8979a19df80029",
					"opcodes": "PUSH1 0x80 PUSH1 0x40 MSTORE CALLVALUE DUP1 ISZERO PUSH2 0x10 JUMPI PUSH1 0x0 DUP1 REVERT JUMPDEST POP PUSH2 0x503 DUP1 PUSH2 0x20 PUSH1 0x0 CODECOPY PUSH1 0x0 RETURN INVALID PUSH1 0x80 PUSH1 0x40 MSTORE PUSH1 0x4 CALLDATASIZE LT PUSH2 0x77 JUMPI PUSH1 0x0 CALLDATALOAD PUSH29 0x100000000000000000000000000000000000000000000000000000000 SWAP1 DIV PUSH4 0xFFFFFFFF AND DUP1 PUSH3 0xF714CE EQ PUSH2 0x7C JUMPI DUP1 PUSH4 0x43E02605 EQ PUSH2 0xD7 JUMPI DUP1 PUSH4 0x8B7AFE2E EQ PUSH2 0x148 JUMPI DUP1 PUSH4 0x99B2CD74 EQ PUSH2 0x173 JUMPI DUP1 PUSH4 0xD0E30DB0 EQ PUSH2 0x19E JUMPI DUP1 PUSH4 0xE15E1C95 EQ PUSH2 0x1A8 JUMPI JUMPDEST PUSH1 0x0 DUP1 REVERT JUMPDEST CALLVALUE DUP1 ISZERO PUSH2 0x88 JUMPI PUSH1 0x0 DUP1 REVERT JUMPDEST POP PUSH2 0xD5 PUSH1 0x4 DUP1 CALLDATASIZE SUB PUSH1 0x40 DUP2 LT ISZERO PUSH2 0x9F JUMPI PUSH1 0x0 DUP1 REVERT JUMPDEST DUP2 ADD SWAP1 DUP1 DUP1 CALLDATALOAD SWAP1 PUSH1 0x20 ADD SWAP1 SWAP3 SWAP2 SWAP1 DUP1 CALLDATALOAD PUSH20 0xFFFFFFFFFFFFFFFFFFFFFFFFFFFFFFFFFFFFFFFF AND SWAP1 PUSH1 0x20 ADD SWAP1 SWAP3 SWAP2 SWAP1 POP POP POP PUSH2 0x1FF JUMP JUMPDEST STOP JUMPDEST CALLVALUE DUP1 ISZERO PUSH2 0xE3 JUMPI PUSH1 0x0 DUP1 REVERT JUMPDEST POP PUSH2 0x146 PUSH1 0x4 DUP1 CALLDATASIZE SUB PUSH1 0x40 DUP2 LT ISZERO PUSH2 0xFA JUMPI PUSH1 0x0 DUP1 REVERT JUMPDEST DUP2 ADD SWAP1 DUP1 DUP1 CALLDATALOAD PUSH20 0xFFFFFFFFFFFFFFFFFFFFFFFFFFFFFFFFFFFFFFFF AND SWAP1 PUSH1 0x20 ADD SWAP1 SWAP3 SWAP2 SWAP1 DUP1 CALLDATALOAD PUSH20 0xFFFFFFFFFFFFFFFFFFFFFFFFFFFFFFFFFFFFFFFF AND SWAP1 PUSH1 0x20 ADD SWAP1 SWAP3 SWAP2 SWAP1 POP POP POP PUSH2 0x49F JUMP JUMPDEST STOP JUMPDEST CALLVALUE DUP1 ISZERO PUSH2 0x154 JUMPI PUSH1 0x0 DUP1 REVERT JUMPDEST POP PUSH2 0x15D PUSH2 0x4A3 JUMP JUMPDEST PUSH1 0x40 MLOAD DUP1 DUP3 DUP2 MSTORE PUSH1 0x20 ADD SWAP2 POP POP PUSH1 0x40 MLOAD DUP1 SWAP2 SUB SWAP1 RETURN JUMPDEST CALLVALUE DUP1 ISZERO PUSH2 0x17F JUMPI PUSH1 0x0 DUP1 REVERT JUMPDEST POP PUSH2 0x188 PUSH2 0x4A9 JUMP JUMPDEST PUSH1 0x40 MLOAD DUP1 DUP3 DUP2 MSTORE PUSH1 0x20 ADD SWAP2 POP POP PUSH1 0x40 MLOAD DUP1 SWAP2 SUB SWAP1 RETURN JUMPDEST PUSH2 0x1A6 PUSH2 0x4AF JUMP JUMPDEST STOP JUMPDEST CALLVALUE DUP1 ISZERO PUSH2 0x1B4 JUMPI PUSH1 0x0 DUP1 REVERT JUMPDEST POP PUSH2 0x1BD PUSH2 0x4B1 JUMP JUMPDEST PUSH1 0x40 MLOAD DUP1 DUP3 PUSH20 0xFFFFFFFFFFFFFFFFFFFFFFFFFFFFFFFFFFFFFFFF AND PUSH20 0xFFFFFFFFFFFFFFFFFFFFFFFFFFFFFFFFFFFFFFFF AND DUP2 MSTORE PUSH1 0x20 ADD SWAP2 POP POP PUSH1 0x40 MLOAD DUP1 SWAP2 SUB SWAP1 RETURN JUMPDEST PUSH1 0x0 DUP1 SWAP1 SLOAD SWAP1 PUSH2 0x100 EXP SWAP1 DIV PUSH20 0xFFFFFFFFFFFFFFFFFFFFFFFFFFFFFFFFFFFFFFFF AND PUSH20 0xFFFFFFFFFFFFFFFFFFFFFFFFFFFFFFFFFFFFFFFF AND DUP2 PUSH20 0xFFFFFFFFFFFFFFFFFFFFFFFFFFFFFFFFFFFFFFFF AND EQ DUP1 PUSH2 0x2A7 JUMPI POP PUSH1 0x1 PUSH1 0x0 SWAP1 SLOAD SWAP1 PUSH2 0x100 EXP SWAP1 DIV PUSH20 0xFFFFFFFFFFFFFFFFFFFFFFFFFFFFFFFFFFFFFFFF AND PUSH20 0xFFFFFFFFFFFFFFFFFFFFFFFFFFFFFFFFFFFFFFFF AND DUP2 PUSH20 0xFFFFFFFFFFFFFFFFFFFFFFFFFFFFFFFFFFFFFFFF AND EQ JUMPDEST ISZERO ISZERO PUSH2 0x341 JUMPI PUSH1 0x40 MLOAD PUSH32 0x8C379A000000000000000000000000000000000000000000000000000000000 DUP2 MSTORE PUSH1 0x4 ADD DUP1 DUP1 PUSH1 0x20 ADD DUP3 DUP2 SUB DUP3 MSTORE PUSH1 0x25 DUP2 MSTORE PUSH1 0x20 ADD DUP1 PUSH32 0x5741524E494E473A20596F7520444F204E4F54206F776E207468697320616363 DUP2 MSTORE PUSH1 0x20 ADD PUSH32 0x6F756E7421000000000000000000000000000000000000000000000000000000 DUP2 MSTORE POP PUSH1 0x40 ADD SWAP2 POP POP PUSH1 0x40 MLOAD DUP1 SWAP2 SUB SWAP1 REVERT JUMPDEST PUSH1 0x4 SLOAD DUP3 LT ISZERO ISZERO ISZERO PUSH2 0x3BB JUMPI PUSH1 0x40 MLOAD PUSH32 0x8C379A000000000000000000000000000000000000000000000000000000000 DUP2 MSTORE PUSH1 0x4 ADD DUP1 DUP1 PUSH1 0x20 ADD DUP3 DUP2 SUB DUP3 MSTORE PUSH1 0x13 DUP2 MSTORE PUSH1 0x20 ADD DUP1 PUSH32 0x496E73756666696369656E742066756E64732100000000000000000000000000 DUP2 MSTORE POP PUSH1 0x20 ADD SWAP2 POP POP PUSH1 0x40 MLOAD DUP1 SWAP2 SUB SWAP1 REVERT JUMPDEST DUP1 PUSH20 0xFFFFFFFFFFFFFFFFFFFFFFFFFFFFFFFFFFFFFFFF AND PUSH1 0x2 PUSH1 0x0 SWAP1 SLOAD SWAP1 PUSH2 0x100 EXP SWAP1 DIV PUSH20 0xFFFFFFFFFFFFFFFFFFFFFFFFFFFFFFFFFFFFFFFF AND PUSH20 0xFFFFFFFFFFFFFFFFFFFFFFFFFFFFFFFFFFFFFFFF AND EQ ISZERO ISZERO PUSH2 0x454 JUMPI DUP1 PUSH1 0x2 PUSH1 0x0 PUSH2 0x100 EXP DUP2 SLOAD DUP2 PUSH20 0xFFFFFFFFFFFFFFFFFFFFFFFFFFFFFFFFFFFFFFFF MUL NOT AND SWAP1 DUP4 PUSH20 0xFFFFFFFFFFFFFFFFFFFFFFFFFFFFFFFFFFFFFFFF AND MUL OR SWAP1 SSTORE POP JUMPDEST DUP1 PUSH20 0xFFFFFFFFFFFFFFFFFFFFFFFFFFFFFFFFFFFFFFFF AND PUSH2 0x8FC DUP4 SWAP1 DUP2 ISZERO MUL SWAP1 PUSH1 0x40 MLOAD PUSH1 0x0 PUSH1 0x40 MLOAD DUP1 DUP4 SUB DUP2 DUP6 DUP9 DUP9 CALL SWAP4 POP POP POP POP ISZERO DUP1 ISZERO PUSH2 0x49A JUMPI RETURNDATASIZE PUSH1 0x0 DUP1 RETURNDATACOPY RETURNDATASIZE PUSH1 0x0 REVERT JUMPDEST POP POP POP JUMP JUMPDEST POP POP JUMP JUMPDEST PUSH1 0x4 SLOAD DUP2 JUMP JUMPDEST PUSH1 0x3 SLOAD DUP2 JUMP JUMPDEST JUMP JUMPDEST PUSH1 0x2 PUSH1 0x0 SWAP1 SLOAD SWAP1 PUSH2 0x100 EXP SWAP1 DIV PUSH20 0xFFFFFFFFFFFFFFFFFFFFFFFFFFFFFFFFFFFFFFFF AND DUP2 JUMP INVALID LOG1 PUSH6 0x627A7A723058 KECCAK256 RETURN 0xaf RETURN DUP1 SWAP6 0xec ADD MLOAD PUSH26 0x3F7D4510650BE8F21F7FC79BFA15E3EF30FF8979A19DF8002900 "
				},
				"gasEstimates": {
					"creation": {
						"codeDepositCost": "256600",
						"executionCost": "300",
						"totalCost": "256900"
					},
					"external": {
						"contractBalance()": "438",
						"deposit()": "197",
						"lastToWithdraw()": "552",
						"lastWithdrawAmt()": "460",
						"setAccounts(address,address)": "280",
						"withdraw(uint256,address)": "infinite"
					}
				},
				"methodIdentifiers": {
					"contractBalance()": "8b7afe2e",
					"deposit()": "d0e30db0",
					"lastToWithdraw()": "e15e1c95",
					"lastWithdrawAmt()": "99b2cd74",
					"setAccounts(address,address)": "43e02605",
					"withdraw(uint256,address)": "00f714ce"
				}
			},
			"userdoc": {
				"methods": {}
			}
		}
	}
}